{
  "_format": "hh-sol-artifact-1",
  "contractName": "Tracker",
  "sourceName": "contracts/Tracker.sol",
  "abi": [
    {
      "inputs": [
        {
          "internalType": "string",
          "name": "",
          "type": "string"
        },
        {
          "internalType": "uint256",
          "name": "",
          "type": "uint256"
        }
      ],
      "name": "Journey",
      "outputs": [
        {
          "internalType": "string",
          "name": "name",
          "type": "string"
        },
        {
          "internalType": "string",
          "name": "desc",
          "type": "string"
        },
        {
          "internalType": "string",
          "name": "lat",
          "type": "string"
        },
        {
          "internalType": "string",
          "name": "long",
          "type": "string"
        }
      ],
      "stateMutability": "view",
      "type": "function"
    },
    {
      "inputs": [
        {
          "internalType": "string",
          "name": "name",
          "type": "string"
        },
        {
          "internalType": "string",
          "name": "desc",
          "type": "string"
        },
        {
          "internalType": "string",
          "name": "lat",
          "type": "string"
        },
        {
          "internalType": "string",
          "name": "long",
          "type": "string"
        }
      ],
      "name": "addStatus",
      "outputs": [],
      "stateMutability": "nonpayable",
      "type": "function"
    },
    {
      "inputs": [
        {
          "internalType": "uint256",
          "name": "",
          "type": "uint256"
        }
      ],
      "name": "products",
      "outputs": [
        {
          "internalType": "string",
          "name": "",
          "type": "string"
        }
      ],
      "stateMutability": "view",
      "type": "function"
    },
    {
      "inputs": [
        {
          "internalType": "string",
          "name": "productID",
          "type": "string"
        }
      ],
      "name": "track",
      "outputs": [
        {
          "components": [
            {
              "internalType": "string",
              "name": "name",
              "type": "string"
            },
            {
              "internalType": "string",
              "name": "desc",
              "type": "string"
            },
            {
              "internalType": "string",
              "name": "lat",
              "type": "string"
            },
            {
              "internalType": "string",
              "name": "long",
              "type": "string"
            }
          ],
          "internalType": "struct Tracker.Status[]",
          "name": "",
          "type": "tuple[]"
        }
      ],
      "stateMutability": "view",
      "type": "function"
    }
  ],
  "bytecode": "0x608060405234801561001057600080fd5b5061131d806100206000396000f3fe608060405234801561001057600080fd5b506004361061004c5760003560e01c806325eb241214610051578063412ea0831461006d5780637acc0b20146100a0578063b3f8675c146100d0575b600080fd5b61006b60048036038101906100669190610a89565b610100565b005b61008760048036038101906100829190610b96565b61033b565b6040516100979493929190610c71565b60405180910390f35b6100ba60048036038101906100b59190610cd2565b6105be565b6040516100c79190610cff565b60405180910390f35b6100ea60048036038101906100e59190610d21565b61066a565b6040516100f79190610eee565b60405180910390f35b7f70000000000000000000000000000000000000000000000000000000000000008460008151811061013557610134610f10565b5b602001015160f81c60f81b7effffffffffffffffffffffffffffffffffffffffffffffffffffffffffffff19160361019d5760018490806001815401808255809150506001900390600052602060002001600090919091909150908161019b919061114b565b505b6000600180549050905060005b81811015610333576000600182815481106101c8576101c7610f10565b5b9060005260206000200180546101dd90610f6e565b80601f016020809104026020016040519081016040528092919081815260200182805461020990610f6e565b80156102565780601f1061022b57610100808354040283529160200191610256565b820191906000526020600020905b81548152906001019060200180831161023957829003601f168201915b5050505050905060008160405161026d9190611259565b9081526020016040518091039020604051806080016040528089815260200188815260200187815260200186815250908060018154018082558091505060019003906000526020600020906004020160009091909190915060008201518160000190816102da919061114b565b5060208201518160010190816102f0919061114b565b506040820151816002019081610306919061114b565b50606082015181600301908161031c919061114b565b50505050808061032b9061129f565b9150506101aa565b505050505050565b600082805160208101820180518482526020830160208501208183528095505050505050818154811061036d57600080fd5b90600052602060002090600402016000915091505080600001805461039190610f6e565b80601f01602080910402602001604051908101604052809291908181526020018280546103bd90610f6e565b801561040a5780601f106103df5761010080835404028352916020019161040a565b820191906000526020600020905b8154815290600101906020018083116103ed57829003601f168201915b50505050509080600101805461041f90610f6e565b80601f016020809104026020016040519081016040528092919081815260200182805461044b90610f6e565b80156104985780601f1061046d57610100808354040283529160200191610498565b820191906000526020600020905b81548152906001019060200180831161047b57829003601f168201915b5050505050908060020180546104ad90610f6e565b80601f01602080910402602001604051908101604052809291908181526020018280546104d990610f6e565b80156105265780601f106104fb57610100808354040283529160200191610526565b820191906000526020600020905b81548152906001019060200180831161050957829003601f168201915b50505050509080600301805461053b90610f6e565b80601f016020809104026020016040519081016040528092919081815260200182805461056790610f6e565b80156105b45780601f10610589576101008083540402835291602001916105b4565b820191906000526020600020905b81548152906001019060200180831161059757829003601f168201915b5050505050905084565b600181815481106105ce57600080fd5b9060005260206000200160009150905080546105e990610f6e565b80601f016020809104026020016040519081016040528092919081815260200182805461061590610f6e565b80156106625780601f1061063757610100808354040283529160200191610662565b820191906000526020600020905b81548152906001019060200180831161064557829003601f168201915b505050505081565b606060008260405161067c9190611259565b9081526020016040518091039020805480602002602001604051908101604052809291908181526020016000905b8282101561092457838290600052602060002090600402016040518060800160405290816000820180546106dd90610f6e565b80601f016020809104026020016040519081016040528092919081815260200182805461070990610f6e565b80156107565780601f1061072b57610100808354040283529160200191610756565b820191906000526020600020905b81548152906001019060200180831161073957829003601f168201915b5050505050815260200160018201805461076f90610f6e565b80601f016020809104026020016040519081016040528092919081815260200182805461079b90610f6e565b80156107e85780601f106107bd576101008083540402835291602001916107e8565b820191906000526020600020905b8154815290600101906020018083116107cb57829003601f168201915b5050505050815260200160028201805461080190610f6e565b80601f016020809104026020016040519081016040528092919081815260200182805461082d90610f6e565b801561087a5780601f1061084f5761010080835404028352916020019161087a565b820191906000526020600020905b81548152906001019060200180831161085d57829003601f168201915b5050505050815260200160038201805461089390610f6e565b80601f01602080910402602001604051908101604052809291908181526020018280546108bf90610f6e565b801561090c5780601f106108e15761010080835404028352916020019161090c565b820191906000526020600020905b8154815290600101906020018083116108ef57829003601f168201915b505050505081525050815260200190600101906106aa565b505050509050919050565b6000604051905090565b600080fd5b600080fd5b600080fd5b600080fd5b6000601f19601f8301169050919050565b7f4e487b7100000000000000000000000000000000000000000000000000000000600052604160045260246000fd5b6109968261094d565b810181811067ffffffffffffffff821117156109b5576109b461095e565b5b80604052505050565b60006109c861092f565b90506109d4828261098d565b919050565b600067ffffffffffffffff8211156109f4576109f361095e565b5b6109fd8261094d565b9050602081019050919050565b82818337600083830152505050565b6000610a2c610a27846109d9565b6109be565b905082815260208101848484011115610a4857610a47610948565b5b610a53848285610a0a565b509392505050565b600082601f830112610a7057610a6f610943565b5b8135610a80848260208601610a19565b91505092915050565b60008060008060808587031215610aa357610aa2610939565b5b600085013567ffffffffffffffff811115610ac157610ac061093e565b5b610acd87828801610a5b565b945050602085013567ffffffffffffffff811115610aee57610aed61093e565b5b610afa87828801610a5b565b935050604085013567ffffffffffffffff811115610b1b57610b1a61093e565b5b610b2787828801610a5b565b925050606085013567ffffffffffffffff811115610b4857610b4761093e565b5b610b5487828801610a5b565b91505092959194509250565b6000819050919050565b610b7381610b60565b8114610b7e57600080fd5b50565b600081359050610b9081610b6a565b92915050565b60008060408385031215610bad57610bac610939565b5b600083013567ffffffffffffffff811115610bcb57610bca61093e565b5b610bd785828601610a5b565b9250506020610be885828601610b81565b9150509250929050565b600081519050919050565b600082825260208201905092915050565b60005b83811015610c2c578082015181840152602081019050610c11565b60008484015250505050565b6000610c4382610bf2565b610c4d8185610bfd565b9350610c5d818560208601610c0e565b610c668161094d565b840191505092915050565b60006080820190508181036000830152610c8b8187610c38565b90508181036020830152610c9f8186610c38565b90508181036040830152610cb38185610c38565b90508181036060830152610cc78184610c38565b905095945050505050565b600060208284031215610ce857610ce7610939565b5b6000610cf684828501610b81565b91505092915050565b60006020820190508181036000830152610d198184610c38565b905092915050565b600060208284031215610d3757610d36610939565b5b600082013567ffffffffffffffff811115610d5557610d5461093e565b5b610d6184828501610a5b565b91505092915050565b600081519050919050565b600082825260208201905092915050565b6000819050602082019050919050565b600082825260208201905092915050565b6000610db282610bf2565b610dbc8185610d96565b9350610dcc818560208601610c0e565b610dd58161094d565b840191505092915050565b60006080830160008301518482036000860152610dfd8282610da7565b91505060208301518482036020860152610e178282610da7565b91505060408301518482036040860152610e318282610da7565b91505060608301518482036060860152610e4b8282610da7565b9150508091505092915050565b6000610e648383610de0565b905092915050565b6000602082019050919050565b6000610e8482610d6a565b610e8e8185610d75565b935083602082028501610ea085610d86565b8060005b85811015610edc5784840389528151610ebd8582610e58565b9450610ec883610e6c565b925060208a01995050600181019050610ea4565b50829750879550505050505092915050565b60006020820190508181036000830152610f088184610e79565b905092915050565b7f4e487b7100000000000000000000000000000000000000000000000000000000600052603260045260246000fd5b7f4e487b7100000000000000000000000000000000000000000000000000000000600052602260045260246000fd5b60006002820490506001821680610f8657607f821691505b602082108103610f9957610f98610f3f565b5b50919050565b60008190508160005260206000209050919050565b60006020601f8301049050919050565b600082821b905092915050565b6000600883026110017fffffffffffffffffffffffffffffffffffffffffffffffffffffffffffffffff82610fc4565b61100b8683610fc4565b95508019841693508086168417925050509392505050565b6000819050919050565b600061104861104361103e84610b60565b611023565b610b60565b9050919050565b6000819050919050565b6110628361102d565b61107661106e8261104f565b848454610fd1565b825550505050565b600090565b61108b61107e565b611096818484611059565b505050565b5b818110156110ba576110af600082611083565b60018101905061109c565b5050565b601f8211156110ff576110d081610f9f565b6110d984610fb4565b810160208510156110e8578190505b6110fc6110f485610fb4565b83018261109b565b50505b505050565b600082821c905092915050565b600061112260001984600802611104565b1980831691505092915050565b600061113b8383611111565b9150826002028217905092915050565b61115482610bf2565b67ffffffffffffffff81111561116d5761116c61095e565b5b6111778254610f6e565b6111828282856110be565b600060209050601f8311600181146111b557600084156111a3578287015190505b6111ad858261112f565b865550611215565b601f1984166111c386610f9f565b60005b828110156111eb578489015182556001820191506020850194506020810190506111c6565b868310156112085784890151611204601f891682611111565b8355505b6001600288020188555050505b505050505050565b600081905092915050565b600061123382610bf2565b61123d818561121d565b935061124d818560208601610c0e565b80840191505092915050565b60006112658284611228565b915081905092915050565b7f4e487b7100000000000000000000000000000000000000000000000000000000600052601160045260246000fd5b60006112aa82610b60565b91507fffffffffffffffffffffffffffffffffffffffffffffffffffffffffffffffff82036112dc576112db611270565b5b60018201905091905056fea2646970667358221220bf8fbfd9417def6b429dec08764ac63a5679118bc7d5d857a9367b6505a16aec64736f6c63430008130033",
  "linkReferences": {},
  "deployedLinkReferences": {}
}